:020000040800F2
:1000000000C00020D1050008D9040008DB04000866
:10001000DD040008DF040008E1040008000000001F
:10002000000000000000000000000000E3040008E1
:10003000E504000800000000E7040008E9040008E7
:100040001906000819060008190600081906000814
:100050001906000819060008190600081906000804
:1000600019060008190600081906000819060008F4
:1000700019060008190600081906000819060008E4
:1000800019060008190600081906000819060008D4
:1000900019060008190600081906000819060008C4
:1000A00019060008190600081906000819060008B4
:1000B00019060008190600081906000819060008A4
:1000C0001906000819060008190600081906000894
:1000D0001906000819060008190600081906000884
:1000E0001906000819060008190600081906000874
:1000F0001906000819060008190600081906000864
:100100001906000819060008190600081906000853
:100110001906000819060008190600081906000843
:100120001906000819060008190600081906000833
:1001300000000000000000000000000000000000BF
:1001400000000000000000000000000000000000AF
:10015000000000000000000000000000000000009F
:10016000000000000000000000000000000000008F
:10017000000000000000000000000000000000007F
:10018000000000000000000000000000000000006F
:10019000000000000000000000000000000000005F
:1001A000000000000000000000000000000000004F
:1001B000000000000000000000000000000000003F
:1001C000000000000000000000000000000000002F
:1001D000000000000000000000000000000000001F
:0401E0005FF8E0F1F3
:1001E4000348044B834202D0034B03B118477047C2
:1001F4001000002010000020000000000548064BFD
:100204001B1AD90F01EBA301491002D0034B03B110
:100214001847704710000020100000200000000064
:1002240010B5064C237843B9FFF7DAFF044B13B13A
:100234000448AFF300800123237010BD1000002098
:10024400000000007028000808B5054B1BB10549E3
:100254000548AFF30080BDE80840FFF7CFBF00BFFB
:1002640000000000140000207028000882B00A4B2F
:100274009A6942F004029A619A6902F004020092B7
:10028400009A9A6942F008029A619B6903F0080394
:100294000193019B02B070470010024008B50B485F
:1002A4000B4B03600B4B436000238360C3604FF42C
:1002B4008042026143618361C361036200F022FDF5
:1002C40000B908BD00F03AF8FBE700BF2C0000209D
:1002D40000540040A086010010B586B000230293AC
:1002E4000393049305930268114B9A4201D006B01C
:1002F40010BD104CA36943F00803A361A36903F084
:1003040008030093009BC023029312230393032347
:10031400059302A9084800F047FAE36943F400137F
:10032400E361E36903F400130193019BDFE700BF7A
:100334000054004000100240000C014072B6FEE779
:1003440000B591B02822002106A802F0AFF90023DD
:1003540001930293039304930593022306930123C9
:100364000A9310230B9306A800F07CFE68B90F23B0
:1003740001930021029103910491059101A801F0D8
:10038400A3F820B911B05DF804FBFFF7D7FFFFF71E
:10039400D5FF000008B500F065F9FFF7D1FFFFF7BE
:1003A40065FFFFF77BFF00F019F8094C204600F0C9
:1003B400F1F80849204601F03DFD074B00221146A3
:1003C400204601F0F7FC204601F0DCF9FEE700BF0F
:1003D40080000020C02800088828000808B50D48BF
:1003E4000D4B03604FF48273436000238360C3604A
:1003F400036143614FF400728261C361036243622B
:1004040083620A23C36201F02BF900B908BDFFF728
:1004140095FFFBE7140100200030014010B586B0C1
:10042400002302930393049305930268164B9A42A4
:1004340001D006B010BD03F560439A6942F48052BE
:100444009A619A6902F480520092009A9A6942F081
:1004540004029A619B6903F004030193019BA023A6
:1004640002930223039303230593084C02A9204615
:1004740000F09AF94023029300230393049302A902
:10048400204600F091F9D4E7003001400008014013
:1004940082B00E4B9A6942F001029A619A6902F0A5
:1004A40001020092009ADA6942F08052DA61DB6953
:1004B40003F080530193019B054A536823F0E063E2
:1004C40043F08063536002B0704700BF00100240E5
:1004D40000000140FEE7FEE7FEE7FEE7FEE77047A7
:1004E4007047704708B500F0CFF808BD70470000AA
:1004F4001439052904D8DFE801F02C030312161B74
:10050400002070471448017801F1010C80F800C004
:1005140013F801CB114800F801C0013AD2B2002A05
:10052400F0D1012070470C4B00221A700120704753
:1005340000B583B04FF47A730093074B1B78074AD6
:1005440090F82410064800F0BBFC012003B05DF8CD
:1005540004FB0120704700BF8C0100206C010020C7
:100564002C00002029290AD005D94C39C9B2012907
:100574000DD900207047282907D10120704708B5FC
:10058400104600F093F8012008BD002070470120B8
:100594007047000010B50446094B0A4A0A4901F0A5
:1005A40047F9204602F042F80021204602F045F8BF
:1005B400204601F0DAF8204601F025F910BD00BF0D
:1005C40069050008F5040008CC2C0008FFF78EFF2D
:1005D4000B480C490C4A002302E0D458C45004339D
:1005E400C4188C42F9D3094A094C002301E0136072
:1005F4000432A242FBD302F0A9F8FFF7CBFE704706
:100604000000002010000020542D000810000020DD
:1006140030070020FEE7000010B504460E4B1A78A0
:100624004FF47A73B3FBF2F30C4A1068B0FBF3F0A7
:1006340000F0A6F868B90F2C01D901200AE00022C5
:1006440021464FF0FF3000F08BF8054B1C60002072
:1006540000E0012010BD00BF0400002000000020C5
:100664000800002008B5074A136843F0100313601C
:10067400032000F063F80F20FFF7CEFFFFF708FF19
:10068400002008BD00200240034A1168034B1B7878
:100694000B441360704700BF900100200400002049
:1006A400014B1868704700BF9001002038B504461C
:1006B400FFF7F6FF0546B4F1FF3F02D0044B1B7869
:1006C4001C44FFF7EDFF401BA042FAD338BD00BF26
:1006D40004000020002808DB0901C9B200F16040D1
:1006E40000F5614080F80013704700F00F00090125
:1006F400C9B2014B1954704714ED00E000B500F085
:100704000700C0F1070CBCF1040F28BF4FF0040C24
:10071400031D062B0FD9C31E4FF0FF3E0EFA0CF03B
:1007240021EA000199400EFA03FE22EA0E0241EA90
:1007340002005DF804FB0023EEE70000074AD368DB
:1007440023F4E0631B041B0C000200F4E060034389
:1007540043F0BF6343F40033D360704700ED00E01F
:1007640010B50446054BD868C0F30220FFF7C6FF56
:1007740001462046FFF7AEFF10BD00BF00ED00E0CC
:100784000138B0F1807F0BD24FF0E0235861054A65
:10079400F02182F823100020986107221A61704723
:1007A4000120704700ED00E070B582B00024A4463B
:1007B400ABE0854DAB4214D00CD8A5F58015AB4207
:1007C4000FD005F57025AB420BD0A5F58015AB42D3
:1007D40010D106E07D4DAB4203D005F58035AB4228
:1007E40008D18B68002B5AD0012B53D042610824C6
:1007F40000E0CC68BEF1FF0F53D806464FEA8C02E6
:1008040033680F25954023EA050304FA02F21343E3
:1008140033604B6813F0805F75D06D4B9A6942F07A
:1008240001029A619B6903F001030193019B4FEA62
:100834009C02951C674B53F825600CF00305AD0032
:100844000F23AB4026EA0306634B984230D003F5EE
:100854008063984200F0968003F58063984200F02C
:10086400938003F58063984200F0908003F58063E1
:10087400984200F08D8003F58063984216D00623D9
:1008840017E0CC680434B5E7CC680834B2E7CC6828
:100894000C34AFE702610824ACE70024AAE704247F
:1008A400A8E7061DACF108029200A9E7052300E0C1
:1008B4000023AB4033430232464D45F822304B68A7
:1008C40013F4801F66D0454A936843EA0E0393608D
:1008D4004B6813F4001F63D0404AD36843EA0E0305
:1008E400D3604B6813F4003F60D03C4A536843EA3A
:1008F4000E0353604B6813F4803F5DD0374A13688E
:1009040043EA0E0313600CF1010C0B6833FA0CF28A
:1009140058D0012202FA0CF203EA020E32EA03036F
:10092400F1D14B68122B3FF644AF122B3FF662AF66
:1009340001A555F823F000BFE7070008F7070008F2
:100944008D0800089F080008F9070008F907000847
:10095400F9070008F9070008F9070008F907000873
:10096400F9070008F9070008F9070008F907000863
:10097400F9070008F9070008F907000887080008C4
:1009840093080008012394E7022392E7032390E7E6
:1009940004238EE7114A936823EA0E03936097E7D2
:1009A4000E4AD36823EA0E03D3609AE70B4A5368CE
:1009B40023EA0E0353609DE7084A136823EA0E03F3
:1009C4001360A0E702B070BD0000221000003110D7
:1009D40000100240000001400008014000040140F2
:1009E40003685A6912F4806F01D1002070476FF4D4
:1009F40080625A6100230363202280F83D2080F83E
:100A04003E30026C42F00402026480F83C30012063
:100A140070472DE9F04106460C46174698463BE0E0
:100A2400FFF73EFE069BC01A404502D8B8F1000FFE
:100A340032D1012D18D033689B6924EA03039BB299
:100A4400B3FA83F35B099F4226D100233363202248
:100A540086F83D2086F83E30326C42F02002326443
:100A640086F83C30012027E033685B6924EA0303FD
:100A74009BB2B3FA83F35B09E5E733685B6924EA65
:100A8400030C1FFA8CFCBCFA8CFC4FEA5C1C674517
:100A940011D1B8F1FF3FC3D1C4F30745012DECD008
:100AA40033689B6924EA030C1FFA8CFCBCFA8CFCA7
:100AB4004FEA5C1CEBE70020BDE8F0812DE9F84328
:100AC40005460E469046994653E01A6842F4007271
:100AD4001A602B686FF480625A6100232B63202212
:100AE40085F83D2085F83E302A6C42F004022A64E1
:100AF40085F83C3001204AE0FFF7D2FDA0EB090065
:100B0400404502D8B8F1000F33D1012F17D02B681C
:100B14009B6926EA03039BB2003B18BF012343B33E
:100B240000232B63202285F83D2085F83E302A6C73
:100B340042F020022A6485F83C30012027E02B682B
:100B44005B6926EA03039BB2003B18BF0123E6E777
:100B54002B689C6926EA0404A4B2003C18BF012453
:100B6400A4B12B685A6912F4806FAED1B8F1FF3F7B
:100B7400C2D1C6F30747012FEAD12B685C6926EA84
:100B84000404A4B2003C18BF0124E9E70020BDE836
:100B9400F8830000F0B583B004460D4616461F46A0
:100BA400C36A082B0DD0012B0BD013F5803F08D05E
:100BB400036B122B0AD10268136843F48073136029
:100BC40004E02268136843F480731360009733468B
:100BD40000224FF001112046FFF71BFF80B9236963
:100BE400B3F5804F16D1236805F0FE051D613B4621
:100BF400324613492046FFF761FFF8B903B0F0BD50
:100C040023681B6813F4807F02D04FF400732364BD
:100C14000320F3E7EB11226803F0060343F0F0032B
:100C240013613B46324607492046FFF747FF18B990
:100C34002368EDB21D61DAE70120DFE70120DDE77B
:100C4400020001000800010070B504460D46164676
:100C540023685B6913F0800F21D12046FFF7C0FEA3
:100C6400F8B9B5F1FF3FF3D0FFF71AFD801BA84296
:100C740001D8002DECD123685B6913F0800FE7D114
:100C840000232363202284F83D2084F83E30226C24
:100C940042F02002226484F83C30012000E000206D
:100CA40070BD0120FCE770B504460D461646236866
:100CB4005B6913F0040F21D12046FFF791FEF8B9C8
:100CC400B5F1FF3FF3D0FFF7EBFC801BA84201D83E
:100CD400002DECD123685B6913F0040FE7D10023E6
:100CE4002363202284F83D2084F83E30226C42F0B5
:100CF4002002226484F83C30012000E0002070BD12
:100D04000120FCE7002800F0CC8070B5044690F880
:100D14003D30002B77D0242384F83D3022681368BB
:100D240023F0010313602268136843F40043136043
:100D34002268136823F40043136000F081FC6268A6
:100D44005A4B9A4264D85A4B98428CBF00230123D1
:100D5400002B40F0A8805749A1FB00318B0C25687B
:100D64006A6822F03F0242EA91426A6021680A6A94
:100D740022F03F0266684D4DAE424FD80133134313
:100D84000B622168CA6922F44F4222F0FF026568AF
:100D9400464B9D424CD8431E6D00B3FBF5F3013323
:100DA40040F6FC70034278D0C3F30B031A43CA61C4
:100DB40021680B6823F0C003E269206A02431343ED
:100DC4000B6021688B6823F4034323F0FF0322693B
:100DD400E068024313438B602168CB6823F0FF0370
:100DE4006269A06902431343CB602268136843F02D
:100DF4000103136000202064202384F83D30206325
:100E040084F83E0070BD80F83C30FFF765FA82E755
:100E1400294B98428CBF0023012399E74FF4967520
:100E240005FB03F3254DA5FB03539B090133A6E7FB
:100E3400A668BEB9431E05EB450CB3FBFCF30133B6
:100E4400C3F30B03B3FA83F35B0943BBC6B9431E75
:100E540005EB4505B3FBF5F30133C3F30B0343F48F
:100E64000043A3E7431E05EB850C0CEB8C0CB3FB92
:100E7400FCF30133C3F30B03B3FA83F35B09E4E735
:100E8400431E05EB850505EB8505B3FBF5F301333F
:100E9400C3F30B0343F4404388E7042386E70123A9
:100EA40084E7012070470120ACE700BFA086010061
:100EB4007F841E0083DE1B43FF083D00D34D621078
:100EC4002DE9F04385B004460F46914698460C9EA2
:100ED400FFF7E6FB054694F83D00C0B2202804D095
:100EE4000227384605B0BDE8F08300951923012296
:100EF4004F492046FFF78DFD002840F0928094F87A
:100F04003C30012B00F08F80012384F83C302368AF
:100F14001A6812F0010F03D11A6842F001021A6034
:100F24002268136823F400631360212384F83D309E
:100F3400102384F83E3000232364C4F82490A4F8DA
:100F44002A80638D23853B4BE3622B463246394628
:100F54002046FFF71FFE0746002866D100230393AF
:100F640023685A6903929B690393039B11E0236CE2
:100F7400042B01D00127B4E72268136843F40073FB
:100F84001360F7E72A4631462046FFF78CFE002817
:100F94002ED1238D002B36D02A4631462046FFF72A
:100FA40053FE0028E3D1626A236812781A61606AEA
:100FB400431C6362618D89B2013989B26185238DD5
:100FC400013B9BB223852268516911F0040FD9D0EB
:100FD400002BD7D043781361636A01336362638D56
:100FE4009BB2013B9BB26385238D013B2385C9E7FB
:100FF400236C042B01D0012773E72268136843F4A0
:1010040000731360F7E72268136843F400731360F6
:10101400202384F83D30002384F83E3084F83C30AB
:101024005FE702275DE702275BE7012759E700BF77
:10103400020010000000FFFF82B0084B1B68084A42
:10104400A2FB03235B0A00FB03F3019300BF019B94
:101054005A1E0192002BF9D102B070470000002003
:10106400D34D6210002800F0F18170B582B00446BF
:10107400036813F0010F2CD0994B5B6803F00C0349
:10108400042B1DD0964B5B6803F00C03082B12D085
:101094006368B3F5803F41D0002B55D103F1804301
:1010A40003F504331A6822F480321A601A6822F4B1
:1010B40080221A6037E08A4B5B6813F4803FE7D0E4
:1010C400874B1B6813F4003F03D06368002B00F0C8
:1010D400BF81236813F0020F75D0814B5B6813F056
:1010E4000C0F5FD07E4B5B6803F00C03082B54D0CD
:1010F4002369002B00F08A807A4B01221A60FFF7E3
:10110400CFFA0546764B1B6813F0020F75D1FFF733
:10111400C7FA401B0228F5D903209EE1704A1368E0
:1011240043F480331360636843B3FFF7B9FA0546A9
:101134006B4B1B6813F4003FCBD1FFF7B1FA401B94
:101144006428F5D9032088E1B3F5A02F09D0644BB6
:101154001A6822F480321A601A6822F480221A6013
:10116400E1E703F18043A3F53C331A6842F480229B
:101174001A601A6842F480321A60D4E7FFF790FAD2
:101184000546574B1B6813F4003FA2D0FFF788FABB
:10119400401B6428F5D903205FE1514B5B6813F4CD
:1011A400803FA5D14E4B1B6813F0020F03D0236977
:1011B400012B40F04F814A4A136823F0F803616918
:1011C40043EAC1031360236813F0080F33D0A36903
:1011D400002B5CD0434B0122C3F88024FFF760FA54
:1011E40005463F4B5B6A13F0020F21D1FFF758FA13
:1011F400401B0228F5D903202FE1394A136823F054
:10120400F803616943EAC1031360DCE7354B00224C
:101214001A60FFF745FA0546314B1B6813F0020FBD
:10122400D1D0FFF73DFA401B0228F5D9032014E181
:101234000120FFF701FF236813F0040F00F09680EC
:10124400274BDB6913F0805F34D1254BDA6942F018
:101254008052DA61DB6903F080530193019B01251D
:10126400214B1B6813F4807F26D0E368012B3DD00B
:10127400002B53D103F1804303F504331A6A22F09F
:1012840001021A621A6A22F004021A6233E0154B50
:101294000022C3F88024FFF703FA0546104B5B6A6B
:1012A40013F0020FC7D0FFF7FBF9401B0228F5D952
:1012B4000320D2E00025D3E70B4A136843F480737C
:1012C4001360FFF7EDF90646074B1B6813F4807FA4
:1012D400CBD1FFF7E5F9801B6428F5D90320BCE0E6
:1012E4000010024000004242007000405F4A136A4E
:1012F40043F001031362E36833B3FFF7D1F9064601
:101304005A4B1B6A13F0020F2FD1FFF7C9F9801B48
:1013140041F288339842F3D903209EE0052B09D08B
:10132400524B1A6A22F001021A621A6A22F004026B
:101334001A62E0E74D4B1A6A42F004021A621A6A12
:1013440042F001021A62D6E7FFF7AAF90646474BB4
:101354001B6A13F0020F08D0FFF7A2F9801B41F2B9
:1013640088339842F3D9032077E0E5B9E369002B89
:1013740072D03E4A526802F00C02082A56D0022B60
:1013840017D03B4B00221A66FFF78AF90446374B05
:101394001B6813F0007F47D0FFF782F9001B022877
:1013A400F5D9032059E0314AD36923F08053D3613E
:1013B400DCE72F4B00221A66FFF772F905462B4B28
:1013C4001B6813F0007F06D0FFF76AF9401B022860
:1013D400F5D9032041E0236AB3F5803F1AD02349AD
:1013E4004B6823F47413226A606A024313434B600C
:1013F4001F4B01221A66FFF753F904461B4B1B6867
:1014040013F0007F0ED1FFF74BF9001B0228F5D92A
:10141400032022E0154A536823F40033A1680B43E8
:101424005360DCE7002018E0002016E0012B16D002
:101434000E4B5B6803F48031226A914211D103F4AC
:101444007013626A93420ED1002006E001207047B7
:10145400012002E0012000E0002002B070BD012064
:10146400FBE70120F9E70120F7E700BF0010024085
:10147400000042420F4B5B6803F00C02082A01D0C3
:101484000D487047C3F383420C49885C13F4803FD2
:101494000BD0084B5B68C3F34043094AD35C064A4C
:1014A40002FB00F0B0FBF3F07047064B03FB00F0C7
:1014B400704700BF0010024000127A00B0280008F4
:1014C400AC28000800093D00002800F0A08070B599
:1014D4000D460446524B1B6803F007038B420BD2A4
:1014E4004F4A136823F007030B431360136803F098
:1014F40007038B4240F08D80236813F0020F17D04E
:1015040013F0040F04D0474A536843F4E063536074
:10151400236813F0080F04D0424A536843F460531D
:101524005360404A536823F0F003A1680B435360AF
:10153400236813F0010F31D06368012B20D0022BF4
:1015440025D0384A126812F0020F64D035494A682F
:1015540022F0030213434B60FFF7A2F80646314B17
:101564005B6803F00C036268B3EB820F16D0FFF7DD
:1015740097F8801B41F288339842F0D9032045E064
:10158400284A126812F4003FE0D101203EE0254AC7
:10159400126812F0007FD9D1012037E0204B1B687C
:1015A40003F00703AB420AD91D4A136823F007036B
:1015B4002B431360136803F00703AB422DD1236858
:1015C40013F0040F06D0174A536823F4E063E1686C
:1015D4000B435360236813F0080F07D0114A536874
:1015E40023F46053216943EAC1035360FFF742FFC8
:1015F4000C4B5B68C3F303130B4AD35CD8400B4B0F
:1016040018600B4B1868FFF707F8002070BD012025
:1016140070470120FAE70120F8E70120F6E700BF50
:1016240000200240001002409C2800080000002016
:1016340008000020014B1868704700BF000000201C
:1016440008B5FFF7F7FF044B5B68C3F30223034AB3
:10165400D35CD84008BD00BF0010024094280008A5
:10166400002856D010B50446436A33B94368B3F52D
:10167400827F05D00023C36102E00023036143613C
:101684000023A36294F85130002B3CD0022384F849
:1016940051302268136823F040031360636803F435
:1016A4008273A26802F404421343E26802F4006203
:1016B4001343226902F002021343626902F0010239
:1016C4001343A26902F400721343E26902F0380280
:1016D4001343226A02F080021343A26A02F4005206
:1016E400216813430B60638B226803F00403536087
:1016F4002268D36923F40063D36100206065012369
:1017040084F8513010BD84F850302046FEF786FE30
:10171400BCE70120704710B582B003681B7C446BA2
:1017240003FB01F1C90089B20C440094002100F0CC
:1017340065FF02B010BD2DE9F041064690F83870FF
:1017440090F83950036893F8118000242A46214602
:101754003046FFF7E0FF0134E4B20135EDB2A742B1
:1017640001D9A845F2D8BDE8F08108B503681B7C0F
:1017740090F8382003FB02F2D2000021406B00F005
:1017840095FF08BD10B50446FFF7D5FF204600F0CD
:101794005BFF10BD10B5044680F83910036B1B685D
:1017A4009847236B5B682046984710BD10B50446E4
:1017B40090F8933023B900212046FFF7EBFF10BDCA
:1017C400FFF7D3FFF7E738B50446FFF7B4FF94F803
:1017D400393094F838501D44EDB223685B7CAB4239
:1017E40008D994F8933053B929462046FFF7D2FF1D
:1017F400012038BD204600F027FF0020F9E72046ED
:10180400FFF7B3FFF0E710B50446FFF7CFFF20461C
:10181400FFF7D9FF0028FAD100212046FFF7BAFFCD
:1018240010BD000008230370004870479401002095
:1018340030B585B004460D4600931346084A09495D
:1018440000F024FF0DF10F00FFF7ECFF01460095B7
:10185400054B9DF80F20204600F09FFC05B030BDDD
:10186400A923000855250008DB1F0008405C7047C9
:101874004218435C507800EB032080B2704700208C
:10188400704738B504460D4600212846FFF7EEFFA1
:10189400207001212846FFF7E9FF607002212846E5
:1018A400FFF7E4FFA07003212846FFF7DFFFE07095
:1018B40004212846FFF7DAFF207105212846FFF7A7
:1018C400D5FF607106212846FFF7D0FFA0710721DC
:1018D4002846FFF7CBFFE07108212846FFF7C6FF33
:1018E400207209212846FFF7C1FF60720A212846A9
:1018F400FFF7BCFFA0720B212846FFF7B7FFE07289
:101904000C212846FFF7B2FF20730D212846FFF76C
:10191400ADFF60730E212846FFF7A8FFA0730F21C7
:101924002846FFF7A3FFE07310212846FFF79EFF28
:10193400207411212846FFF79BFF6082132128465B
:10194400FFF796FFA08215212846FFF791FFE0825A
:1019540038BD30B5024690F80CE00468207840FAAF
:101964000EF05FFA80FC0EEB0103DBB2072B0FD9FC
:10197400CEF1080E5FFA8EFE651C156094F801C066
:101984000CFA0EFC4CEA000C5FFA8CFC083BDBB250
:101994004FF0FF30884013732CEA000030BD38B597
:1019A400044600F160050166002380F86C3090F86D
:1019B40078102846FFF7CDFF84F86A0094F8791070
:1019C4002846FFF7C6FF84F86B0094F8923084F839
:1019D4006E30B3FA83F35B0984F86F3038BD10B509
:1019E4000C46FFF7B6FF013CE4B20123A340C01A42
:1019F40040B210BD012B05D0022B06D043B91044D0
:101A040080B27047084480B27047801A80B2704731
:101A1400401A80B27047012B05D0022B06D043B97F
:101A2400084480B27047801A80B27047401A80B26E
:101A34007047104480B270472DE9F04F89B00546D5
:101A44008A46079290F968305FFA83FB90F969201F
:101A5400D3B2039319E0CDF814A01FE095F86E30CB
:101A640085F892300097059B0699284600F022FAE3
:101A7400B2453CD3ABEB040454445FFA84FA039BB1
:101A84000133DBB203934FF0000B95F96A40E4B2E3
:101A9400A4EB0B06F6B2B245DDD30596B5F8669015
:101AA4004FFA8BF19DF90C8095F870703B464246D5
:101AB4000491B5F86400FFF7AEFF06903B4642463A
:101AC40004994846FFF796FF0246079B002BC5D1B1
:101AD40095F86D30002BCBD195F86F3085F89230A6
:101AE4000097059B0699284600F0E4F9C0E70AEB45
:101AF4000B0385F8683085F8698009B0BDE8F08F7C
:101B04002DE9F04F85B0044600F16005FFF747FF6B
:101B140094F96B7094F87A102846FFF760FF8046BA
:101B240094F87B102846FFF75AFF064694F87C1079
:101B34002846FFF754FF039094F96A90B9F1000F17
:101B440055DD3E44F6B2764276B294F870B05B4608
:101B540032464146B4F86400FFF75DFF8246A4F8BC
:101B640064005B4632464146B4F86600FFF742FF24
:101B74000246A4F86600BBF1030F68D8DFE80BF057
:101B8400023B495B1FFA89F353449BB2384480B249
:101B940000905146204600F008FA40B3002384F830
:101BA400683084F8693094F876102846FFF7D1FE3F
:101BB400804694F877102846FFF7CBFE06460022AD
:101BC40041462046FFF738FF012231462046FFF701
:101BD40033FF01212846FFF7BCFE0028EFD194F91A
:101BE4006930BB42DFDB94F86E3084F8923003989E
:101BF40005B0BDE8F08FAAEB070189B201310AF103
:101C040001039BB21FFA89F0104480B21FFA81FAD3
:101C1400BEE71FFA89F1AAEB010189B201310AF189
:101C240001039BB2C61BB6B20136013080B2B2B218
:101C34001FFA81FAACE70AEB07039BB21FFA89F19A
:101C4400411A89B20131013080B28AB2A0E7534609
:101C54009EE770B50E46846D1734FF2913D86029AA
:101C640003D9B0F888301C4406E0402904D9B0F800
:101C740086301C4400E01C44637803B32278B242EB
:101C8400F9D1A01C1CE0B0F88A301C442546002180
:101C94002846FFF7EDFD044402212846FFF7E8FD3E
:101CA40004358642F3D801E0A3781C442278637893
:101CB40053EA022305D09E42F6D1E01C00E0002046
:101CC40070BD0020FCE710B50446A0F86410A0F82D
:101CD40066201946FFF7BDFF28B101462046FFF7ED
:101CE4000FFF80B210BD0020FCE7F8B504460D4696
:101CF40016461F4690F87030032B07D8DFE803F030
:101D0400020D1217C36D9847304486B23B463246E3
:101D140029462046FFF7D7FFF8BDC36D9847281A18
:101D240085B2F3E7C36D9847301A86B2EEE7C36D08
:101D34009847284485B2E9E72DE9F04104460F4667
:101D440016461D4600F098FA4FF0000804E00744D8
:101D5400BFB240441FFA80F8636829782046984748
:101D64004FF6FF72904222D001354FF6FE72904238
:101D7400F2D00346324639462046FFF7B6FF94F8C0
:101D84007030032BE5D801A252F823F0531D00084C
:101D9400A11D0008A71D0008AD1D00080644B6B229
:101DA400D7E73F1ABFB2D4E7361AB6B2D1E74046F6
:101DB400BDE8F08110B5024C4460FFF7BDFF10BDD3
:101DC400E3210008836D73B390F9812080F88E209D
:101DD40090F9823080F88F3090F88D1019B3012972
:101DE40014D000B590F97E1090F980C001EB0C0E70
:101DF400724505DAC9B25FFA8CF2114480F88E108C
:101E0400634501DD80F88FC05DF804FB90F9831011
:101E14008A4201DA80F88E1090F98420934202DD20
:101E240080F88F2070477047014BC365704700BF2F
:101E340083180008836D8B4209D010B50446816570
:101E44007430FFF71EFD2046FFF7BCFF10BD70473E
:101E540000B5B0F800E0B1F800C0F4441FFA8CFCFF
:101E6400E64505D99E4513D203F1FF3C1FFA8CFCCD
:101E74009E450FD294450FD9964500D372469C4592
:101E840000D8634602809B1A0B8001205DF804FB96
:101E94009646EDE70020F9E70020F7E730B583B078
:101EA400C48F121BC46A9DF81850009592B2A047C3
:101EB40003B030BD70B584B004469DF82000ADF881
:101EC4000E10ADF80C20ADF80A3094F88C305BB3EA
:101ED400BDF80A3043B3012B03D9022826D00328C6
:101EE4002DD010F0010534D1B4F84C20BDF80C30DD
:101EF4009A4219D8B4F84E20934215D2B4F84A3015
:101F0400B4F848200DF10A010DF10E00FFF7A0FF0F
:101F140050B1236B9E680095BDF80A30BDF80C20C3
:101F2400BDF80E102046B04704B070BD8AB2D31A73
:101F34009BB2ADF80E300133ADF80E30D1E7BDF8E9
:101F44000C20D31A9BB2ADF80C300133ADF80C3031
:101F5400C7E7B4F84820BDF80E309A42E4D8B4F884
:101F64004A209342E0D2B4F84E30B4F84C200DF13C
:101F74000A0103A8FFF76CFF0028CAD1D4E78A42FC
:101F840005D2834209D89A4209D901207047834275
:101F940007D99A4207D901207047012070470020D1
:101FA4007047002070470020704770B504460D4606
:101FB4001E46BDF81030B0F84E10B0F84C00FFF7D4
:101FC400DEFF38B133462A46B4F84A10B4F8480064
:101FD400FFF7D5FF70BD70B59DF8105002F0070EE5
:101FE4004FF0010C0CFA0EFC5FFA8CFC90F8926036
:101FF400012E1AD90024012E19D022F007060268F6
:10200400127C06FB02F292B20A44416B1144DDB920
:102014000A782243D2B20A7082EA0C0201F8012B38
:10202400013B9BB2002BF3D170BD6446E3E74FF054
:10203400000CE2E701241BE06400E4B24FEA4C0C1C
:102044005FFA8CFC002BEFD00A782243D2B20A70DC
:1020540082EA0C020A700EF10102013B9BB212F0FB
:10206400070EE9D1428F114490F89220012AE1D958
:10207400012AE7D04FF0010CE4E710B5016890F8AD
:102084003830DA0082870A7CD200428790F839E03F
:102094004FEACE02C28703EB0E0491F811C06445E7
:1020A40003DDACEB0E0C1FFA8CF3DB009BB2A0F843
:1020B4004020A0F842201A44A0F842208B8AA0F8BD
:1020C4004430CB8AA0F8463010BD08B5FFF7D5FFE1
:1020D40008BD10B582B00446B0F856300093B0F88D
:1020E4005230B0F85420B0F85010FFF75EFF20B91A
:1020F400002384F88C3002B010BD012384F88C30A6
:10210400B4F84820B4F850309A4201D2A4F84830C8
:10211400B4F84A20B4F852309A4201D9A4F84A30AB
:10212400B4F84C20B4F854309A4201D2A4F84C309C
:10213400B4F84E20B4F856309A42DCD9A4F84E30A4
:10214400D9E708B50022A0F84820B0F84420A0F848
:102154004A20B0F84020A0F84C20B0F84220A0F863
:102164004E20FFF7B6FF08BD10B582B09DF81040B1
:102174000094FFF793FE02B010BD08B50022A0F84A
:102184005020A0F854204FF6FF72A0F85220A0F877
:102194005620036B5B68984708BD70B50446049EDF
:1021A40000258565C362416380F8382080F8395082
:1021B40080F86D5080F8915080F88D50012380F89C
:1021C400923080F893300663336898472046FFF7CF
:1021D400D4FF2046FFF728FE84F8705070BD0246F5
:1021E4000B4600293FD00A2940D090F8261061BB45
:1021F400FB2B09D8F72B10D8EF2B14D8DF2B18D8CA
:10220400BF2B1CD818467047052180F8261003F010
:10221400010313844FF6FE707047042180F82610E2
:1022240003F00303F5E7032180F8261003F0070306
:10223400EFE7022180F8261003F00F03E9E70121FC
:1022440080F8261003F01F03E3E70139C9B280F8D0
:102254002610008C800180B2108403F03F031843E1
:10226400108431B970474FF6FF7070474FF6FF7016
:1022740070474FF6FE70F5E7002380F8263070476C
:1022840010B5134604690A461721A04710BD00B5CE
:1022940083B08DF807100DF107020121FFF7F0FF5D
:1022A40003B05DF804FB10B5046900231A46182135
:1022B400A04710BD10B5046900231A461921A04790
:1022C40010BD70B504460D461646FFF7ECFF4021DD
:1022D4002046FFF7DCFF33462A46172120462569AE
:1022E400A8472046FFF7E6FF70BD10B50A46C4684C
:1022F40000231521A04710BD10B50A46C468002369
:102304001621A04710BD10B51346C4680A4617210C
:10231400A04710BD10B5C46800231A461821A04771
:1023240010BD10B5C46800231A461921A04710BD7A
:1023340070B582B006460D4609E015292FD32278E0
:102344008DF80720F46800233046A04702352C4658
:1023540014F8011B192910D8182919D21629ECD9F7
:1023640017291CD123788DF807300DF107020121BC
:102374003046FFF7C8FF0235E9E7FE290FD122787E
:102384008DF807202921304600F065F90235DEE793
:10239400F56800231A463046A8472546D7E702B019
:1023A40070BD0000F8B5054614461E46A1F1140C94
:1023B400BCF1050F56D8DFE80CF03703181D454A69
:1023C400294B1B7873B92846FFF76DFF0021284677
:1023D400FFF75DFF21462846FFF759FF0120224BF6
:1023E4001870F8BDFFF766FFEDE71146FFF74FFFE2
:1023F4000120F6E71C4B1B7853B1FFF75BFF07E0A6
:10240400324618212846FFF75CFF183CE4B2183620
:10241400182CF5D8324621462846FFF752FF124BB6
:1024240000221A700120DCE790F82430FF2B05D03D
:102434002F69334622462846B847D2E7782380F8E6
:102444002430F5E7084B00221A700120C9E7064B37
:102454001B7823B9044B00221A700120C1E7FFF74F
:1024640029FFF7E70020BCE794050020F8B50646ED
:1024740015461C460B39042960D8DFE801F0035FD8
:102484000E21300022B92E49FFF752FF012025E02A
:102494002C49FFF74DFF012020E042B92A49FFF7FC
:1024A40047FF33689B7C86F82230012016E02749D9
:1024B400FFF73EFF3368DB7C86F8223001200DE015
:1024C400FFF728FF81213046FFF70FFF29463046EA
:1024D400FFF712FF3046FFF724FF0120F8BDFFF796
:1024E40019FF6379DB00DBB296F822701F44FFB258
:1024F40040213046FFF7F9FE390941F0100130461A
:10250400FFF7F3FE07F00F013046FFF7F5FEA17960
:1025140041F0B0013046FFF7EFFE2179C90022688F
:1025240001F0F8013046FFF7EEFE6A1E12F0FF05D7
:10253400F3D13046FFF7F5FE0120CFE70020CDE7C9
:10254400082D0008002D0008F82C0008F02C0008C5
:1025540038B505460C46FFF789FF90B9092C0AD017
:102564000A2C0FD1284600F018F807492846FFF72F
:10257400DFFE012006E00549284600F009F80120A5
:1025840000E0012038BD00BF102D0008D82C000841
:1025940001608B7C80F82230704710B5044600231C
:1025A4001A462821D0F814C0E04700231A46142103
:1025B4002046D4F80CC0E04701224B21204600F00D
:1025C4004AF823681A792921204600F044F80022A9
:1025D4004B21204600F03FF823681A792921204630
:1025E40000F039F801224B21204600F034F823682A
:1025F4005A792921204600F02EF810BD10B582B07A
:102604008DF805108DF806208DF80430049B009396
:1026140084686B4601220F21A04702B010BD10B59B
:10262400846800231A460921A04710BD10B58468A8
:1026340000231A460A21A04710BD10B50A46846833
:1026440000230B21A04710BD10B5846800231A464F
:102654001021A04710BD10B544690023A04710BD48
:102664000020704700230360074A8260C260026151
:10267400426180F8233080F826308361FF2380F89C
:10268400243080F82830704765260008F8B50446E1
:102694000F4616461D46FFF7E5FFA760E660256175
:1026A400069B63612046FFF7BAFFF8BD70B5860745
:1026B40047D0541E002A3ED00346CAB201E0013C72
:1026C40039D303F8012B9D07F9D1032C2CD9CDB2B2
:1026D40005EB05250F2C1A4605EB054534D9A4F165
:1026E400100C2CF00F0603F1100EB6444FEA1C1C1C
:1026F400C2E90055C2E9025510327245F8D10CF115
:10270400010214F00C0F03EB021204F00F0C13D0AF
:10271400ACF1040323F003030433134442F8045BD1
:102724009342FBD10CF003042CB1C9B21C4403F84E
:10273400011BA342FBD170BD64461346002CF4D1A7
:10274400F9E703461446C0E7A446E1E770B50F4B2A
:102754000F4DAB42A3EB050607D00024B61055F885
:10276400043B01349847A642F9D800F07FF8094D9C
:10277400094B5E1BAB424FEAA60606D0002455F86F
:10278400043B01349847A642F9D870BD482D00088F
:10279400482D0008482D0008502D0008704700BF40
:1027A400704700BF024B13B1024800F005B87047F0
:1027B40000000000C9270008002301461A461846F5
:1027C40000F014B838B5074D074C2C1BA41005D0E5
:1027D400013C55F8043D9847002CF9D1BDE8384038
:1027E40000F04AB8542D0008502D00082DE9F84394
:1027F4001B4D0646286898460F469146FFF7CEFFC4
:10280400184B1C681CB3286865681F2D22DC4EB960
:102814006B1C0235636044F82570FFF7C1FF00208C
:10282400BDE8F883012304EB8501C1F88890D4F84E
:102834008821AB401A43022EC4F88821C1F80881CC
:10284400E6D1D4F88C211A43C4F88C21E0E7064C75
:102854001C60D8E7FFF7A4FF4FF0FF30E0E700BFAC
:102864000C0000209C050020A0050020F8B500BF46
:10287400F8BC08BC9E467047F8B500BFF8BC08BC5D
:042884009E467047B5
:1028880048656C6C6F20576F726C64000000000024
:10289800010203040000000000000000010203041C
:1028A80006070809010200000203040506070809D3
:1028B8000A0B0C0D0E0F10105F0002020404020434
:1028C800050B0BFFFD07FD07FD013A02C103EF20D1
:1028D8000500A60421077223E590232207337325F8
:1028E8005901230D75A2AD4C69A86AA832250024A8
:1028F8000C955E35AF34B6462ADD11250D7763EEAB
:1029080048578619A695CC05260E77635623955504
:102918005E232D299700270531F364280AA3D534AF
:10292800A9E4196500290BA31625CAA85C49450026
:102938002A0955AA350E75C8082B0A55A235A33899
:102948006446112C07321F65A4002D0513EA642E76
:102958000622E264042F0973E2B45249C50830081C
:102968007462CDFA4A0A310874624D4DAF11320AC9
:1029780074624D8D28CB3104330A74624D25A9F455
:102988001A0A340B75623DCB54A621B50235097479
:102998006265AD7C0D05360A7462559963ADA40075
:1029A800370B75626D0C15B3CE2600380A7462CDEC
:1029B8005A49A56501390A74624DA54BCDA1003A63
:1029C80007522365C4113B08621F65C491023C0984
:1029D80055A25D2D8D36123D0835A6656838043E32
:1029E8000A55A245A38DD4D2003F0A74A34DA5254C
:1029F80033960A40169ADA7E68A451542A2D155740
:102A08008C2BA62455D6F4D000410E78E13D531AFC
:102A18006E98F4D0711D01420D76E26548E51A51B1
:102A280059632400430E76E26D8C3832D248A3A550
:102A38004602440D7722E6B4A4924A2A3986024512
:102A48000D76E2E59249A31135926304460D76E2CC
:102A5800E59249C51155D42302470E76E26D8C38AC
:102A68003252438EA84602480B7862662EE91CD380
:102A78006B0E490974626524E935024A0A855E6D60
:102A880044ED95D4044B0E7722662D19551E5949ED
:102A980035A6004C0E76E265648D34D2482635861C
:102AA800004D0E79A266C475263399C9ACD41E4E62
:102AB8000E7722662D19574C33CDA866024F0E7635
:102AC800E26D2439E288238EA84602500D76A2656D
:102AD80048E51A51233D2200510F96DA6D2439E258
:102AE80088238EA846D670520D77E2656825951C16
:102AF8005965A50E530B75A26DCC918F38160054ED
:102B08000E76E2E5482A6AA491467A2400550E77A3
:102B1800E2652433CA28A38C324F00561078226607
:102B280044A5E3CA4865B4B1C6190157117AA2662B
:102B38002D6754A65219A98D6C1C3300580E77E2E4
:102B4800652A9937DA28C9A8D408590F782266A4C3
:102B5800A5B3CA68638D351C115A0A76E2E590530D
:102B68009BC7105B08A31665287F0D5C0973E224D8
:102B7800461965015D08A31665F96B085E0845AE40
:102B8800352FB5035F06155665086006223A2506F7
:102B9800610A55624D26B9921A02620C756165EB9D
:102BA800A9924A2A2D00630954626DA8A9D200642B
:102BB8000A76A2752339929F4A650954626DA83135
:102BC800F200660A74E154A991A43502670E85568D
:102BD8006DACA4E2D223C5341200680E7661652379
:102BE8008D46545145159500690772E2448E236A53
:102BF80009A3164D23BF46026B0C766165238D5CD5
:102C080071ABB4046C0773E164F9016D0D582226A9
:102C180025394652C94A561A6E0956A22549E5D79A
:102C2800006F0A55A26DA99146520B700D85556526
:102C380044955452696A3901710B85566DA9A4925D
:102C48008ADB1E72095422458D114D0073075322E9
:102C58006DA4437409742135AA91A42D750B55628E
:102C6800458D9454527101760A5562458D14A746D4
:102C780011770D57A145A591CA3447462500780913
:102C88005462450DA58612790C8556458DA4E6CE6D
:102C9800286A0D7A0854626528D7107B0AA415554E
:102CA800494B6A690B7C06A1D7E4117D0BA4164534
:102CB8004B5B2A6949007E0625AACD050000000461
:102CC800FFFF0000CF200008472100086D21000801
:102CD8000001140A6464323200127A000004289653
:102CE80010080000800040001815A015C019FF004A
:102CF8001815A115C819FF001815AE19FF00000016
:102D08001815AF19FF0000001815AE15D516801557
:102D1800A8163F15D316001540158D161415201644
:102D28000015A115C815DA1612158116CF15D91672
:102D3800F115DB1640152E15A415A619FF00000085
:082D4800A92700084D02000854
:042D50002502000850
:102D540000127A0001000000100000009805002015
:04000005080005D119
:00000001FF
